:040000008A15002835
:10000800FF00030E8301031791000A0892008A017A
:1000180070080313A2007108A1000B1D2E280630DA
:10002800810083165308013EF00000300318013E9A
:100038005407F1007008D3007108D400003054024E
:10004800031D282828305302031C2D280130D50011
:100058008B120B110B1C4528831206088316D80037
:100068008312061E3C282B08031D3C280130BA00C9
:100078000030061A0130AB00861E44280130AC005F
:100088000B1083122208F0002108F1000317120850
:0C0098008A00110E8300FF0E7F0E09008D
:0C00A40000000000000000000000080048
:0E00B000533083120313FD00FD0B5C28080083
:1000BE00243083120313FC00B530FD00FD0B6528C0
:0A00CE00FC0B65280000000008008C
:1000D80083120317AA1B73280313871375280313A6
:1000E800871703172A1B7B28031307137D2803137D
:1000F80007170317AA1A83280313871285280313DF
:10010800871603172A1A8B28031307128D2803133F
:10011800071683166F1893288312071495288312DD
:1001280007108714522087100317AA199E28031353
:100138008713A0280313871703172A19A628031360
:100148000713A828031307170317AA18AE280313C1
:100158008712B0280313871603172A18B628031323
:100168000712B8280313071683166F18BE288312C0
:100178000714C0288312071087145220871083168B
:0C0188006F1CC8285F20C9285820080000
:1001940083120313F801F9011030FC00710DF80DFE
:1001A400F90D7408F8027508031C750FF902031899
:1001B400E2287408F80775080318750FF907031087
:0A01C400F00DF10DFC0BD02808002F
:1001CE0083120317A801053028020318F528280802
:1001DE002707840020308000A80AEA28280827076D
:1001EE0084008001A80328082707A9000A30F4001C
:1001FE00F5012508F0002608F100CA207808F00065
:10020E007908F1003030F0070317290884007008D0
:10021E0080000A30F400F5012508F0002608F100F0
:10022E00CA2070080317A5007108A60000307106D9
:10023E00031D232900307006031D26292829A80333
:04024E00FA28080082
:10025200243083120313FD00FD0B2D29000008003A
:1002620083120313FB01FA01F9018030F800F10C4B
:10027200F00C031C45297408F90775080318750F5B
:10028200FA070318FB0A0310F01F4D297408FA0736
:1002920075080318750FFB07FB0CFA0CF90CF80C28
:1002A200031C38297B08F3007A08F2007908F10070
:0602B2007808F0000800CE
:1002B800831603136F10831203172508AA006C20F6
:0602C80083166F1408000C
:0E02CE008312031714088A0013088200080028
:1002DC0080298030831203179C009329C0309C0026
:1002EC00932994309C009329D4309C00932980301E
:1002FC009C009329831203171C08013A03196F29D8
:10030C001C08023A031974291C08033A03197729AB
:10031C001C08043A03197A297D291D03F0001C08D6
:10032C00F00770089C007008AA006C2083166F10F0
:10033C00831203179F011F081E078400000803196E
:10034C00B1291F081E0784000008A5005C21831238
:0E035C0003179F0AA129831603136F140800CC
:10036A0083120317A101A2011C08A3001D08A400FF
:10037A0080301D06F00080307002031DC62900304F
:10038A001C020318D4290130A1000030A2001C0865
:10039A00003CA3001D08031C013EA401A40223087B
:1003AA00A5002408A6001E08A700E72006309F0023
:1003BA000030A0002008003C031DE5291F08003C6E
:1003CA000318002A1F081E07F20001301F02F0005E
:1003DA000030031C013E2002F10070081E07840051
:1003EA000008F000720884007008800001309F0243
:1003FA00031CA003DF291E08840020308000210886
:10040A00220403191E2A9F01A0011F081E07840047
:10041A000008203A031D152A9F0A0319A00A0A2A6E
:10042A0001309F02031CA0031F081E0784002D3001
:04043A008000080036
:10043E00831203179D019E011C08F2001C08F30095
:10044E00720884000008203A031D322A1D081E047B
:10045E00031D322A3F2A01309D0000309E00720893
:10046E0084000008F0007308840070088000F30A0E
:10047E007208F100F20A710884000008003A031DA8
:08048E00272A1C08F0000800F9
:10049600831203179D011D081C0784000008031919
:1004A6005E2A1D081C0784000008A5005C21831233
:0804B60003179D0A4E2A0800FD
:1004BE00831203139F01C0309F046D09F000700872
:1004CE0083169F051F179F17831203171C08F00032
:1004DE00F00D7010F00D7010F00D70107008031309
:1004EE009F041F1429211F151F1D7F2A00007B2A20
:1004FE001F101E08F100F00183161E08F0040030D4
:04050E00F1040800EC
:10051200831603131208013EF000F1010318F10AD9
:10052200831203171C08F400F50131210630F20092
:100532007008F4007108F50072080319A52AF50C79
:10054200F40CF513FF3E9E2A0430F1007408F0000B
:1005520071080319B02AF00D7010FF3EAA2A30303C
:100562007005F3007408F0007508F100F10CF00C4E
:10057200F113F10CF00CF113700895000F30970590
:0605820073089704080055
:10058800831203132230FC00F801F901FA01FB0180
:10059800FC030319FA2A0310FB0CFA0CF90CF80CEB
:1005A800F30CF20CF10CF00C031CCC2AFC0303191D
:1005B800EC2A7408F80775080318750FF907760808
:1005C8000318760FFA0777080318770FFB07D02A66
:1005D8007408F80775080318750FF90776080318E3
:0E05E800760FFA0777080318770FFB07080055
:1005F6000130831203179500861786140130AA006E
:100606006C20013003179C0001309D003D309E0098
:100616006E210230831203179C0001309D00483082
:100626009E006E210230FB004530FC00A930FD0023
:10063600FD0B1B2BFC0B1B2BFB0B1B2B00000000CD
:10064600831603136A08003C031D2B2B6908003C24
:1006560003189B2B00306A02031D332B14306902EA
:10066600031C442B143069028312031798000030D0
:10067600031C013E831603136A02831203179900B3
:10068600482B831203179801990118088316031340
:10069600E90083120317190883160313EA0083126D
:1006A6000810881003171808F0001908F100FF3029
:1006B600F400F50131216430F4000030F500CA2061
:1006C600700803179C00892201300317AA006C20CA
:1006D600013003179C0001309D0058309E006E21AA
:1006E6000230831203179C0001309D0053309E0098
:1006F6006E216908831203179C00831603136A0888
:10070600831203179D00D9309E00B521D9309C0075
:100716001F22D9309C004B223B309C004B22C33019
:10072600FC00CD30FD00FD0B962BFC0B962B232BEE
:10073600831203179C0189220810881001300317C1
:10074600AA006C20013003179C0001309D00243064
:100756009E006E2183122A080319D12B013003173C
:100766009C005F227008D6007108D7000130710224
:10077600031DBF2B2C307002031CC22BD12B033060
:10078600FB008A30FC005530FD00FD0BC82BFC0B2E
:10079600C82BFB0BC82B00000000AD2B01308312C9
:1007A6000317AA006C20861386100317950108000C
:1007B60083160313D301D401D501063083128100B9
:0407C6008B16080086
:1007CA0087308316031381000630831281008B124F
:0207DA00080015
:1007DC0083120313FB01FA01F901F801A001730D57
:1007EC00F80D7408F8027508031C750FF9027608E9
:1007FC00031C760FFA027708031C770FFB0200012B
:10080C00031C0130A002F30D0730FC00730DF80D32
:10081C00F90DFA0DFB0DA00D7408731C272CF802B2
:10082C007508031C750FF9027608031C760FFA0283
:10083C007708031C770FFB020001031C0130A00298
:10084C00382CF80775080318750FF9077608031884
:10085C00760FFA0777080318770FFB0700010318C8
:10086C000130A007F30DFC0B0C2C720DF80DF90DDB
:10087C00FA0DFB0DA00D7408731C562CF8027508AC
:10088C00031C750FF9027608031C760FFA02770821
:10089C00031C770FFB020001031C0130A002672C24
:1008AC00F80775080318750FF90776080318760F03
:1008BC00FA0777080318770FFB07000103180130BC
:1008CC00A007F20D0730FC00720DF80DF90DFA0DB2
:1008DC00FB0DA00D7408721C852CF8027508031C06
:1008EC00750FF9027608031C760FFA027708031CC1
:1008FC00770FFB020001031C0130A002962CF807B5
:10090C0075080318750FF90776080318760FFA07A0
:10091C0077080318770FFB07000103180130A007B5
:10092C00F20DFC0B6A2C710DF80DF90DFA0DFB0D87
:10093C00A00D7408721CB42CF8027508031C750FFA
:10094C00F9027608031C760FFA027708031C770F5E
:10095C00FB020001031C0130A002C52CF80775082E
:10096C000318750FF90776080318760FFA0777083E
:10097C000318770FFB07000103180130A007F10DD6
:10098C000730FC00710DF80DF90DFA0DFB0DA00DE3
:10099C007408711CE32CF8027508031C750FF9021E
:1009AC007608031C760FFA027708031C770FFB02FC
:1009BC000001031C0130A002F42CF8077508031881
:1009CC00750FF90776080318760FFA0777080318DE
:1009DC00770FFB07000103180130A007F10DFC0B8A
:1009EC00C82C700DF80DF90DFA0DFB0DA00D740847
:1009FC00711C122DF8027508031C750FF90276088C
:100A0C00031C760FFA027708031C770FFB02000118
:100A1C00031C0130A002232DF80775080318750F6D
:100A2C00F90776080318760FFA0777080318770F7B
:100A3C00FB07000103180130A007F00D0730FC0084
:100A4C00700DF80DF90DFA0DFB0DA00D7408701C4E
:100A5C00412DF8027508031C750FF9027608031C6A
:100A6C00760FFA027708031C770FFB020001031CB8
:100A7C000130A002522DF80775080318750FF907FD
:100A8C0076080318760FFA0777080318770FFB0719
:100A9C00000103180130A007F00DFC0B262D701877
:100AAC00652D7408F80775080318750FF907760893
:100ABC000318760FFA0777080318770FFB0708005F
:100ACC008316031387100710071287120713871357
:100ADC0083128710071087130713871207125F20E2
:100AEC005F205F20871607168714522087105F201F
:100AFC008714522087105F208714522087105F20A4
:100B0C0007128714522087105F20871452208710F9
:100B1C00871287178714522087105F2087130716B8
:100B2C0087145220871007128714522087105F20D9
:100B3C0087145220871007168714522087105F20C5
:100B4C000712871452208710871707178716071666
:0E0B5C008714522087105F2083166F14080044
:100B6A00831603130711831212150C309704080019
:0C0B7A0083120313950117129712080054
:100B860067218A110A128000840A930A0319940ABB
:080B9600F003031DC32D08004C
:100CA400233084004A3083120313F000CF3003173B
:100CB400930005309400C325A030840013308312C0
:100CC4000313F0003C300317930006309400C3254F
:100CD4006D308400033083120313F0004F30031788
:100CE400930006309400C325B3308400233083126C
:100CF4000313F00019300317930006309400C32542
:020D04000800E5
:101000008A1152268A158130831203139F00C4303F
:1010100083169F000330850071308600831286019D
:101020008316870183128701831688018312880142
:1010300083168113831212109210F93083169200D6
:101040008A11BD258A158A11B5258A1503179C01B9
:101050008A1189228A158A1166258A158230FC0038
:10106000DD30FD00FD0B3228FC0B322800000000B3
:10107000013083120317AA008A116C208A158A1185
:10108000E5238A15003006180130A3000030061A47
:101090000130AB0006088316D8000B108B170B1716
:1010A0008B158312BA01AC01013003179C0001308B
:1010B0009D002D309E008A116E218A15831286159F
:1010C0000230FB004530FC00A930FD00FD0B662816
:1010D000FC0B6628FB0B6628000000008611C3305D
:1010E000FC00CD30FD00FD0B7328FC0B7328013094
:1010F0000317AA008A116C208A1583120313061C99
:10110000C7282308031DC7280130A3002A0801307F
:10111000031D0030F0007008AA0070080319A12810
:1011200001300317AA008A116C208A1501300317B9
:101130009C0001309D005E309E008A116E218A1550
:10114000B228013083120317AA008A116C208A1575
:10115000013003179C0001309D00BB309E008A11B6
:101160006E218A150330FB008A30FC005530FD00EB
:10117000FD0BB828FC0BB828FB0BB82800000000BA
:10118000013083120317AA008A116C208A150618F1
:10119000CA28A3013A0803193829BA01831643085B
:1011A000031D04290130C300B901BA010130C40094
:1011B000D001D101D201C501C6010130831203174C
:1011C000AA008A116C208A15013003179C00013097
:1011D0009D00C7309E008A116E218A150330FB00E6
:1011E0008A30FC005530FD00FD0BF428FC0BF42880
:1011F000FB0BF42800000000013083120317AA0043
:101200008A116C208A153829831644080319382955
:10121000D20A04305202031C3829C4010130BA003A
:101220008A11DB238A1501300317AA008A116C206A
:101230008A15013003179C0001309D00B3309E00D9
:101240008A116E218A150330FB008A30FC0055306C
:10125000FD00FD0B2929FC0B2929FB0B2929000086
:101260000000013083120317AA008A116C208A152E
:1012700083122C0803196229AC0101300317AA005C
:101280008A116C208A15013003179C0001309D00E3
:10129000A0309E008A116E218A150330FB008A302F
:1012A000FC005530FD00FD0B5329FC0B5329FB0BB3
:1012B000532900000000013083120317AA008A118D
:1012C0006C208A15831643080319092A3908031D5F
:1012D000082A44080319C129083083128606803081
:1012E00086060230FB004530FC00A930FD00FD0BF6
:1012F0007729FC0B7729FB0B77290000000032309F
:1013000083165007F10051080318013EF2007108DE
:10131000D0007208D10003307202031D91292030E1
:101320007102031CC029C4010130B900C30183123A
:101330008613861501300317AA008A116C208A15BE
:10134000013003179C0001309D00AB309E008A11D4
:101350006E218A150430FB00CF30FC000130FD0007
:10136000FD0BB029FC0BB029FB0BB02900000000DD
:101370008312861101300317AA008A116C208A1586
:10138000082A83163A080319082A55080319F5296B
:101390000130B900C301831286138615013003178B
:1013A000AA008A116C208A15013003179C000130B5
:1013B0009D0065309E008A116E218A150430FB0065
:1013C000CF30FC000130FD00FD0BE429FC0BE429CB
:1013D000FB0BE42900000000831286110130031783
:1013E000AA008A116C208A15082A83120830860602
:1013F000803086060230FB004530FC00A930FD003D
:10140000FD0B002AFC0B002AFB0B002A0000000049
:101410007D28831203179C018A115F228A157008A8
:10142000EB007108EC000030F200F3006430F400CF
:10143000F501F601F7018A11C4228A15FF30F40084
:101440000330F500F601F7018A11EE238A157008C2
:101450008316ED007108EE00831203171508031DB3
:101460005A2B0030831603136E02031D392A3030C5
:101470006D020318422A831208108814643003177F
:101480009600592A831603136E08003C031D4A2A4E
:101490006D08343C0318532A8312081488106430F2
:1014A00003179600592A8312031308108810031794
:1014B00096010030831603136A06031D612A323039
:1014C0006906031D682A0A30831203179700B72A9A
:1014D000831603136A08003C031D702A69085A3CEE
:1014E0000318772A0530831203179700B72A83164B
:1014F00003136A08003C031D7F2A6908463C031851
:10150000862A0330831203179700B72A8316031322
:101510006A08003C031D8E2A6908323C0318952A8C
:101520000130831203179700B72A831603136A0842
:10153000003C031D9D2A69081E3C0318A42A0130A3
:10154000831203179700B72A831603136A08003C17
:10155000031DAC2A69080A3C0318B32A033083121E
:1015600003179700B72A831203170530970000303E
:10157000831603136A02031DC32A83120317160876
:101580008316031369020318EC2A690883120317F0
:101590001602F100831603136A08031C013EF201D0
:1015A000F20200307202031DD92A831203171708B2
:1015B0007102031CE42A831203171708831603130E
:1015C000E9070318EA0AEB2A8312031716088316A1
:1015D0000313E900EA011C2B6A08003C031DF42AEE
:1015E000690883120317160203181C2B83120317B2
:1015F0001608831603136902F1000030031C013E34
:101600006A02F20000307202031D0A2B83120317D4
:1016100017087102031C152B831203171708831672
:101620000313E902031CEA031C2B83120317160899
:1016300083160313E900EA01831603136908F00017
:101640006A08F100FF30F400F5018A1131218A1592
:101650006430F4000030F5008A11CA208A15700841
:1016600003179C008A1189228A1501300317AA00EA
:101670008A116C208A1583166908831203179C004F
:10168000831603136A08831203179D00D9309E0046
:101690008A11B5218A15D9309C008A111F228A151A
:1016A000D9309C008A114B228A156E309C008A1119
:1016B0004B228A15900A05301002031C7E2B9001E4
:1016C00001309C008A115F228A157008D6007108CB
:1016D000D70083122A0803197E2B01308316570284
:1016E000031D742B2C30560203187E2B8312031714
:1016F0001508031D7E2B8A11FB228A150230FB0080
:101700004530FC00A930FD00FD0B842BFC0B842B25
:0C171000FB0B842B000000007D288D2BBB
:020B9E00013420
:0C0BA00041345234523445345434003493
:020BAC00013412
:020BAE00013410
:020BB00000340F
:100BB200533459345334543445344D344534203449
:0A0BC20050345234453454340034EA
:020BCC000034F3
:040BCE002534003496
:100BD2004F34423453345434413443344C34453426
:060BE20020342134003430
:100BE80046345234453449344E344134473445341C
:060BF8002034213400341A
:0A0BFE00563420343A342034003419
:0C0C080046345234453449344E34003434
:0E0C140053344534433420344F344E340034CE
:100C22004334483441345234473445344434003434
:0C0C3200543449344D34453452340034FD
:020C3E00003480
:020C400000347E
:100C420053344534433420344F344634463400342C
:020C520000346C
:020C540000346A
:040C56000034003432
:100C5A004334483441345234473449344E344734A7
:020C6A00003454
:040C6C00003400341C
:020C700000344E
:040C72000034003416
:020C7600003448
:100C780048344934533454344F3452344934513459
:060C880055344534003430
:100C8E0043344834413452344734453444340034C8
:020C9E000F3411
:040CA00025340034C3
:02400E004A2F37
:00000001FF
